:020000000A28CC
:10000800FE00030EC8000A08C9008B280B28B4207C
:10001800CD00C001C101C201C301C401C501C601AF
:1000280083011628A6208B17C730CA001B28CA0BC5
:100038001A281E281F2844084602031824282528A1
:1000480036280430CC000C30CB003330CA00CA0B41
:100058002B28CB0B2B28CC0B2B2832280130CA009D
:100068004A08C6074608440203183B283C284B2880
:100078000430CC000C30CB003330CA00CA0B422805
:10008800CB0B4228CC0B422849280130C6028519DF
:100098004E284F2855280830CA004A08C400C00115
:1000A800C1018518582859285F280C30CA004A0809
:1000B800C400C001C10105186228632869281230EC
:1000C800CA004A08C400C001C101851D6C286D28FA
:1000D8001828851C702871281828051C742875286C
:1000E80018280130C0070318C10A0030C1070330BF
:1000F8004102E83003194002031C83288428182889
:10010800C601E830C0000330C10018280A280130B1
:10011800C7004708C5074D084502031C94289528C1
:1001280097280515C50146084502031C9C289D28EB
:100138009E2805118C1049088A00480E8300FE0E7F
:100148007E0E09006030900085010B308600880122
:10015800890132309200043093000B178D14080087
:02016800193448
:02400E00062288
:00000001FF
