:02000000F929DC
:1002FE006030900085010B30860088018901323014
:10030E009200043093000B178D1408007F21C73024
:10031E00C5009129C50B90299429952944081802E6
:10032E0003189A299B29A8298230C600DD30C50002
:10033E00C50B9F29C60B9F29A4290130C50045086E
:10034E009807180844020318AD29AE29B92982303E
:10035E00C600DD30C500C50BB229C60BB229B729C0
:10036E00013098028519BC29BD29C3293230C50038
:10037E004508C400C001C1018518C629C729CD2969
:10038E004B30C5004508C400C001C1010518D02975
:10039E00D129D7295A30C5004508C400C001C10172
:1003AE00851DDA29DB298E29851CDE29DF298E2978
:1003BE00051CE229E3298E290130C0070318C10A62
:1003CE000030C10703304102E83003194002031C1C
:1003DE00F129F2298E299801E830C0000330C100BE
:1003EE008E290028C001C101C201C301C4018301CD
:0203FE008D2947
:02400E00062288
:00000001FF
